{
  "contractName": "Voting",
  "abi": [
    {
      "anonymous": false,
      "inputs": [
        {
          "indexed": true,
          "internalType": "address",
          "name": "previousOwner",
          "type": "address"
        },
        {
          "indexed": true,
          "internalType": "address",
          "name": "newOwner",
          "type": "address"
        }
      ],
      "name": "OwnershipTransferred",
      "type": "event"
    },
    {
      "anonymous": false,
      "inputs": [
        {
          "indexed": false,
          "internalType": "uint256",
          "name": "proposalId",
          "type": "uint256"
        },
        {
          "indexed": false,
          "internalType": "string",
          "name": "proposalDescription",
          "type": "string"
        }
      ],
      "name": "ProposalRegistered",
      "type": "event"
    },
    {
      "anonymous": false,
      "inputs": [
        {
          "indexed": false,
          "internalType": "address",
          "name": "voter",
          "type": "address"
        },
        {
          "indexed": false,
          "internalType": "uint256",
          "name": "proposalId",
          "type": "uint256"
        }
      ],
      "name": "Voted",
      "type": "event"
    },
    {
      "anonymous": false,
      "inputs": [
        {
          "indexed": false,
          "internalType": "address",
          "name": "voterAddress",
          "type": "address"
        }
      ],
      "name": "VoterRegistered",
      "type": "event"
    },
    {
      "anonymous": false,
      "inputs": [
        {
          "indexed": false,
          "internalType": "enum Voting.WorkflowStatus",
          "name": "previousStatus",
          "type": "uint8"
        },
        {
          "indexed": false,
          "internalType": "enum Voting.WorkflowStatus",
          "name": "newStatus",
          "type": "uint8"
        }
      ],
      "name": "WorkflowStatusChange",
      "type": "event"
    },
    {
      "inputs": [],
      "name": "numberOfProposals",
      "outputs": [
        {
          "internalType": "uint256",
          "name": "",
          "type": "uint256"
        }
      ],
      "stateMutability": "view",
      "type": "function"
    },
    {
      "inputs": [],
      "name": "owner",
      "outputs": [
        {
          "internalType": "address",
          "name": "",
          "type": "address"
        }
      ],
      "stateMutability": "view",
      "type": "function"
    },
    {
      "inputs": [],
      "name": "renounceOwnership",
      "outputs": [],
      "stateMutability": "nonpayable",
      "type": "function"
    },
    {
      "inputs": [
        {
          "internalType": "address",
          "name": "newOwner",
          "type": "address"
        }
      ],
      "name": "transferOwnership",
      "outputs": [],
      "stateMutability": "nonpayable",
      "type": "function"
    },
    {
      "inputs": [],
      "name": "winningProposalId",
      "outputs": [
        {
          "internalType": "uint256",
          "name": "",
          "type": "uint256"
        }
      ],
      "stateMutability": "view",
      "type": "function"
    },
    {
      "inputs": [],
      "name": "workflowStatus",
      "outputs": [
        {
          "internalType": "enum Voting.WorkflowStatus",
          "name": "",
          "type": "uint8"
        }
      ],
      "stateMutability": "view",
      "type": "function"
    },
    {
      "inputs": [],
      "name": "getWinningProposalId",
      "outputs": [
        {
          "internalType": "uint256",
          "name": "",
          "type": "uint256"
        }
      ],
      "stateMutability": "view",
      "type": "function"
    },
    {
      "inputs": [],
      "name": "getWorkflowStatus",
      "outputs": [
        {
          "internalType": "enum Voting.WorkflowStatus",
          "name": "",
          "type": "uint8"
        }
      ],
      "stateMutability": "view",
      "type": "function"
    },
    {
      "inputs": [
        {
          "internalType": "address",
          "name": "_addr",
          "type": "address"
        }
      ],
      "name": "getVoter",
      "outputs": [
        {
          "components": [
            {
              "internalType": "bool",
              "name": "isRegistered",
              "type": "bool"
            },
            {
              "internalType": "bool",
              "name": "hasVoted",
              "type": "bool"
            },
            {
              "internalType": "uint256",
              "name": "votedProposalId",
              "type": "uint256"
            }
          ],
          "internalType": "struct Voting.Voter",
          "name": "",
          "type": "tuple"
        }
      ],
      "stateMutability": "view",
      "type": "function"
    },
    {
      "inputs": [
        {
          "internalType": "uint256",
          "name": "_id",
          "type": "uint256"
        }
      ],
      "name": "getOneProposal",
      "outputs": [
        {
          "components": [
            {
              "internalType": "string",
              "name": "description",
              "type": "string"
            },
            {
              "internalType": "uint256",
              "name": "voteCount",
              "type": "uint256"
            }
          ],
          "internalType": "struct Voting.Proposal",
          "name": "",
          "type": "tuple"
        }
      ],
      "stateMutability": "view",
      "type": "function"
    },
    {
      "inputs": [
        {
          "internalType": "uint256",
          "name": "_id",
          "type": "uint256"
        }
      ],
      "name": "getOneProposalDescription",
      "outputs": [
        {
          "internalType": "string",
          "name": "",
          "type": "string"
        }
      ],
      "stateMutability": "view",
      "type": "function"
    },
    {
      "inputs": [
        {
          "internalType": "address",
          "name": "_addr",
          "type": "address"
        }
      ],
      "name": "addVoter",
      "outputs": [],
      "stateMutability": "nonpayable",
      "type": "function"
    },
    {
      "inputs": [
        {
          "internalType": "string",
          "name": "_desc",
          "type": "string"
        }
      ],
      "name": "addProposal",
      "outputs": [],
      "stateMutability": "nonpayable",
      "type": "function"
    },
    {
      "inputs": [
        {
          "internalType": "uint256",
          "name": "_id",
          "type": "uint256"
        }
      ],
      "name": "setVote",
      "outputs": [],
      "stateMutability": "nonpayable",
      "type": "function"
    },
    {
      "inputs": [],
      "name": "startProposalsRegistering",
      "outputs": [],
      "stateMutability": "nonpayable",
      "type": "function"
    },
    {
      "inputs": [],
      "name": "endProposalsRegistering",
      "outputs": [],
      "stateMutability": "nonpayable",
      "type": "function"
    },
    {
      "inputs": [],
      "name": "startVotingSession",
      "outputs": [],
      "stateMutability": "nonpayable",
      "type": "function"
    },
    {
      "inputs": [],
      "name": "endVotingSession",
      "outputs": [],
      "stateMutability": "nonpayable",
      "type": "function"
    },
    {
      "inputs": [],
      "name": "tallyVotes",
      "outputs": [],
      "stateMutability": "nonpayable",
      "type": "function"
    }
  ],
  "bytecode": "0x60806040523480156200001157600080fd5b5062000032620000266200003860201b60201c565b6200004060201b60201c565b62000104565b600033905090565b60008060009054906101000a900473ffffffffffffffffffffffffffffffffffffffff169050816000806101000a81548173ffffffffffffffffffffffffffffffffffffffff021916908373ffffffffffffffffffffffffffffffffffffffff1602179055508173ffffffffffffffffffffffffffffffffffffffff168173ffffffffffffffffffffffffffffffffffffffff167f8be0079c531659141344cd1fd0a4f28419497f9722a3daafe3b4186f6b6457e060405160405180910390a35050565b6127eb80620001146000396000f3fe608060405234801561001057600080fd5b50600436106101215760003560e01c8063b36114d6116100ad578063e81e977b11610071578063e81e977b14610298578063ee74c678146102b6578063f2fde38b146102c0578063f4ab9adf146102dc578063f75d64a6146102f857610121565b8063b36114d614610206578063c64963c514610236578063c7038a4e14610254578063c88af42f1461025e578063d4f50f981461026857610121565b80638d7af473116100f45780638d7af473146101725780638da5cb5b14610190578063a1edffa2146101ae578063a2788cce146101cc578063a7bfab16146101fc57610121565b8063230796ae146101265780632fdae3c514610142578063378a21781461015e578063715018a614610168575b600080fd5b610140600480360381019061013b919061193e565b610316565b005b61015c60048036038101906101579190611ab1565b610604565b005b610166610850565b005b610170610a19565b005b61017a610aa1565b6040516101879190611b09565b60405180910390f35b610198610aa7565b6040516101a59190611b65565b60405180910390f35b6101b6610ad0565b6040516101c39190611bf7565b60405180910390f35b6101e660048036038101906101e1919061193e565b610ae3565b6040516101f39190611ce6565b60405180910390f35b610204610c40565b005b610220600480360381019061021b919061193e565b610d9a565b60405161022d9190611d52565b60405180910390f35b61023e610ed6565b60405161024b9190611b09565b60405180910390f35b61025c610edc565b005b610266611036565b005b610282600480360381019061027d9190611da0565b61118f565b60405161028f9190611e2a565b60405180910390f35b6102a06112b7565b6040516102ad9190611b09565b60405180910390f35b6102be6112c1565b005b6102da60048036038101906102d59190611da0565b61141b565b005b6102f660048036038101906102f19190611da0565b611512565b005b61030061172f565b60405161030d9190611bf7565b60405180910390f35b601c60003373ffffffffffffffffffffffffffffffffffffffff1673ffffffffffffffffffffffffffffffffffffffff16815260200190815260200160002060000160009054906101000a900460ff166103a5576040517f08c379a000000000000000000000000000000000000000000000000000000000815260040161039c90611e91565b60405180910390fd5b600360058111156103b9576103b8611b80565b5b600260009054906101000a900460ff1660058111156103db576103da611b80565b5b1461041b576040517f08c379a000000000000000000000000000000000000000000000000000000000815260040161041290611f23565b60405180910390fd5b60011515601c60003373ffffffffffffffffffffffffffffffffffffffff1673ffffffffffffffffffffffffffffffffffffffff16815260200190815260200160002060000160019054906101000a900460ff161515036104b1576040517f08c379a00000000000000000000000000000000000000000000000000000000081526004016104a890611f8f565b60405180910390fd5b600c8111156104f5576040517f08c379a00000000000000000000000000000000000000000000000000000000081526004016104ec90611ffb565b60405180910390fd5b80601c60003373ffffffffffffffffffffffffffffffffffffffff1673ffffffffffffffffffffffffffffffffffffffff168152602001908152602001600020600101819055506001601c60003373ffffffffffffffffffffffffffffffffffffffff1673ffffffffffffffffffffffffffffffffffffffff16815260200190815260200160002060000160016101000a81548160ff021916908315150217905550600381600c81106105ab576105aa61201b565b5b6002020160010160008154809291906105c390612079565b91905055507f4d99b957a2bc29a30ebd96a7be8e68fe50a3c701db28a91436490b7d53870ca433826040516105f99291906120c1565b60405180910390a150565b601c60003373ffffffffffffffffffffffffffffffffffffffff1673ffffffffffffffffffffffffffffffffffffffff16815260200190815260200160002060000160009054906101000a900460ff16610693576040517f08c379a000000000000000000000000000000000000000000000000000000000815260040161068a90611e91565b60405180910390fd5b600160058111156106a7576106a6611b80565b5b600260009054906101000a900460ff1660058111156106c9576106c8611b80565b5b14610709576040517f08c379a000000000000000000000000000000000000000000000000000000000815260040161070090612136565b60405180910390fd5b6040516020016107189061217c565b604051602081830303815290604052805190602001208160405160200161073f9190611d52565b6040516020818303038152906040528051906020012003610795576040517f08c379a000000000000000000000000000000000000000000000000000000000815260040161078c9061220e565b60405180910390fd5b61079d611812565b818160000181905250806003601b54600c81106107bd576107bc61201b565b5b6002020160008201518160000190805190602001906107dd92919061182c565b50602082015181600101559050506001601b60008282546107fe919061222e565b925050819055507f7c33c4b6ed18ab3f65fdeb25d41356291f7ec877c0db0af1a821ad5c444b4aeb6001601b546108359190612284565b836040516108449291906122b8565b60405180910390a15050565b610858611746565b73ffffffffffffffffffffffffffffffffffffffff16610876610aa7565b73ffffffffffffffffffffffffffffffffffffffff16146108cc576040517f08c379a00000000000000000000000000000000000000000000000000000000081526004016108c390612334565b60405180910390fd5b600460058111156108e0576108df611b80565b5b600260009054906101000a900460ff16600581111561090257610901611b80565b5b14610942576040517f08c379a0000000000000000000000000000000000000000000000000000000008152600401610939906123c6565b60405180910390fd5b600080600090505b600c8110156109a857600382600c81106109675761096661201b565b5b6002020160010154600382600c81106109835761098261201b565b5b60020201600101541115610995578091505b80806109a090612079565b91505061094a565b50806001819055506005600260006101000a81548160ff021916908360058111156109d6576109d5611b80565b5b02179055507f0a97a4ee45751e2abf3e4fc8946939630b11b371ea8ae39ccdc3056e98f5cc3f60046005604051610a0e9291906123e6565b60405180910390a150565b610a21611746565b73ffffffffffffffffffffffffffffffffffffffff16610a3f610aa7565b73ffffffffffffffffffffffffffffffffffffffff1614610a95576040517f08c379a0000000000000000000000000000000000000000000000000000000008152600401610a8c90612334565b60405180910390fd5b610a9f600061174e565b565b601b5481565b60008060009054906101000a900473ffffffffffffffffffffffffffffffffffffffff16905090565b600260009054906101000a900460ff1681565b610aeb611812565b601c60003373ffffffffffffffffffffffffffffffffffffffff1673ffffffffffffffffffffffffffffffffffffffff16815260200190815260200160002060000160009054906101000a900460ff16610b7a576040517f08c379a0000000000000000000000000000000000000000000000000000000008152600401610b7190611e91565b60405180910390fd5b600382600c8110610b8e57610b8d61201b565b5b60020201604051806040016040529081600082018054610bad9061243e565b80601f0160208091040260200160405190810160405280929190818152602001828054610bd99061243e565b8015610c265780601f10610bfb57610100808354040283529160200191610c26565b820191906000526020600020905b815481529060010190602001808311610c0957829003601f168201915b505050505081526020016001820154815250509050919050565b610c48611746565b73ffffffffffffffffffffffffffffffffffffffff16610c66610aa7565b73ffffffffffffffffffffffffffffffffffffffff1614610cbc576040517f08c379a0000000000000000000000000000000000000000000000000000000008152600401610cb390612334565b60405180910390fd5b60036005811115610cd057610ccf611b80565b5b600260009054906101000a900460ff166005811115610cf257610cf1611b80565b5b14610d32576040517f08c379a0000000000000000000000000000000000000000000000000000000008152600401610d2990611f23565b60405180910390fd5b6004600260006101000a81548160ff02191690836005811115610d5857610d57611b80565b5b02179055507f0a97a4ee45751e2abf3e4fc8946939630b11b371ea8ae39ccdc3056e98f5cc3f60036004604051610d909291906123e6565b60405180910390a1565b6060601c60003373ffffffffffffffffffffffffffffffffffffffff1673ffffffffffffffffffffffffffffffffffffffff16815260200190815260200160002060000160009054906101000a900460ff16610e2b576040517f08c379a0000000000000000000000000000000000000000000000000000000008152600401610e2290611e91565b60405180910390fd5b600382600c8110610e3f57610e3e61201b565b5b600202016000018054610e519061243e565b80601f0160208091040260200160405190810160405280929190818152602001828054610e7d9061243e565b8015610eca5780601f10610e9f57610100808354040283529160200191610eca565b820191906000526020600020905b815481529060010190602001808311610ead57829003601f168201915b50505050509050919050565b60015481565b610ee4611746565b73ffffffffffffffffffffffffffffffffffffffff16610f02610aa7565b73ffffffffffffffffffffffffffffffffffffffff1614610f58576040517f08c379a0000000000000000000000000000000000000000000000000000000008152600401610f4f90612334565b60405180910390fd5b60006005811115610f6c57610f6b611b80565b5b600260009054906101000a900460ff166005811115610f8e57610f8d611b80565b5b14610fce576040517f08c379a0000000000000000000000000000000000000000000000000000000008152600401610fc5906124e1565b60405180910390fd5b6001600260006101000a81548160ff02191690836005811115610ff457610ff3611b80565b5b02179055507f0a97a4ee45751e2abf3e4fc8946939630b11b371ea8ae39ccdc3056e98f5cc3f6000600160405161102c9291906123e6565b60405180910390a1565b61103e611746565b73ffffffffffffffffffffffffffffffffffffffff1661105c610aa7565b73ffffffffffffffffffffffffffffffffffffffff16146110b2576040517f08c379a00000000000000000000000000000000000000000000000000000000081526004016110a990612334565b60405180910390fd5b600160058111156110c6576110c5611b80565b5b600260009054906101000a900460ff1660058111156110e8576110e7611b80565b5b14611128576040517f08c379a000000000000000000000000000000000000000000000000000000000815260040161111f90612573565b60405180910390fd5b60028060006101000a81548160ff0219169083600581111561114d5761114c611b80565b5b02179055507f0a97a4ee45751e2abf3e4fc8946939630b11b371ea8ae39ccdc3056e98f5cc3f600160026040516111859291906123e6565b60405180910390a1565b6111976118b2565b601c60003373ffffffffffffffffffffffffffffffffffffffff1673ffffffffffffffffffffffffffffffffffffffff16815260200190815260200160002060000160009054906101000a900460ff16611226576040517f08c379a000000000000000000000000000000000000000000000000000000000815260040161121d90611e91565b60405180910390fd5b601c60008373ffffffffffffffffffffffffffffffffffffffff1673ffffffffffffffffffffffffffffffffffffffff1681526020019081526020016000206040518060600160405290816000820160009054906101000a900460ff161515151581526020016000820160019054906101000a900460ff161515151581526020016001820154815250509050919050565b6000600154905090565b6112c9611746565b73ffffffffffffffffffffffffffffffffffffffff166112e7610aa7565b73ffffffffffffffffffffffffffffffffffffffff161461133d576040517f08c379a000000000000000000000000000000000000000000000000000000000815260040161133490612334565b60405180910390fd5b6002600581111561135157611350611b80565b5b600260009054906101000a900460ff16600581111561137357611372611b80565b5b146113b3576040517f08c379a00000000000000000000000000000000000000000000000000000000081526004016113aa90612605565b60405180910390fd5b6003600260006101000a81548160ff021916908360058111156113d9576113d8611b80565b5b02179055507f0a97a4ee45751e2abf3e4fc8946939630b11b371ea8ae39ccdc3056e98f5cc3f600260036040516114119291906123e6565b60405180910390a1565b611423611746565b73ffffffffffffffffffffffffffffffffffffffff16611441610aa7565b73ffffffffffffffffffffffffffffffffffffffff1614611497576040517f08c379a000000000000000000000000000000000000000000000000000000000815260040161148e90612334565b60405180910390fd5b600073ffffffffffffffffffffffffffffffffffffffff168173ffffffffffffffffffffffffffffffffffffffff1603611506576040517f08c379a00000000000000000000000000000000000000000000000000000000081526004016114fd90612697565b60405180910390fd5b61150f8161174e565b50565b61151a611746565b73ffffffffffffffffffffffffffffffffffffffff16611538610aa7565b73ffffffffffffffffffffffffffffffffffffffff161461158e576040517f08c379a000000000000000000000000000000000000000000000000000000000815260040161158590612334565b60405180910390fd5b600060058111156115a2576115a1611b80565b5b600260009054906101000a900460ff1660058111156115c4576115c3611b80565b5b14611604576040517f08c379a00000000000000000000000000000000000000000000000000000000081526004016115fb90612729565b60405180910390fd5b60011515601c60008373ffffffffffffffffffffffffffffffffffffffff1673ffffffffffffffffffffffffffffffffffffffff16815260200190815260200160002060000160009054906101000a900460ff1615150361169a576040517f08c379a000000000000000000000000000000000000000000000000000000000815260040161169190612795565b60405180910390fd5b6001601c60008373ffffffffffffffffffffffffffffffffffffffff1673ffffffffffffffffffffffffffffffffffffffff16815260200190815260200160002060000160006101000a81548160ff0219169083151502179055507fb6be2187d059cc2a55fe29e0e503b566e1e0f8c8780096e185429350acffd3dd816040516117249190611b65565b60405180910390a150565b6000600260009054906101000a900460ff16905090565b600033905090565b60008060009054906101000a900473ffffffffffffffffffffffffffffffffffffffff169050816000806101000a81548173ffffffffffffffffffffffffffffffffffffffff021916908373ffffffffffffffffffffffffffffffffffffffff1602179055508173ffffffffffffffffffffffffffffffffffffffff168173ffffffffffffffffffffffffffffffffffffffff167f8be0079c531659141344cd1fd0a4f28419497f9722a3daafe3b4186f6b6457e060405160405180910390a35050565b604051806040016040528060608152602001600081525090565b8280546118389061243e565b90600052602060002090601f01602090048101928261185a57600085556118a1565b82601f1061187357805160ff19168380011785556118a1565b828001600101855582156118a1579182015b828111156118a0578251825591602001919060010190611885565b5b5090506118ae91906118d7565b5090565b6040518060600160405280600015158152602001600015158152602001600081525090565b5b808211156118f05760008160009055506001016118d8565b5090565b6000604051905090565b600080fd5b600080fd5b6000819050919050565b61191b81611908565b811461192657600080fd5b50565b60008135905061193881611912565b92915050565b600060208284031215611954576119536118fe565b5b600061196284828501611929565b91505092915050565b600080fd5b600080fd5b6000601f19601f8301169050919050565b7f4e487b7100000000000000000000000000000000000000000000000000000000600052604160045260246000fd5b6119be82611975565b810181811067ffffffffffffffff821117156119dd576119dc611986565b5b80604052505050565b60006119f06118f4565b90506119fc82826119b5565b919050565b600067ffffffffffffffff821115611a1c57611a1b611986565b5b611a2582611975565b9050602081019050919050565b82818337600083830152505050565b6000611a54611a4f84611a01565b6119e6565b905082815260208101848484011115611a7057611a6f611970565b5b611a7b848285611a32565b509392505050565b600082601f830112611a9857611a9761196b565b5b8135611aa8848260208601611a41565b91505092915050565b600060208284031215611ac757611ac66118fe565b5b600082013567ffffffffffffffff811115611ae557611ae4611903565b5b611af184828501611a83565b91505092915050565b611b0381611908565b82525050565b6000602082019050611b1e6000830184611afa565b92915050565b600073ffffffffffffffffffffffffffffffffffffffff82169050919050565b6000611b4f82611b24565b9050919050565b611b5f81611b44565b82525050565b6000602082019050611b7a6000830184611b56565b92915050565b7f4e487b7100000000000000000000000000000000000000000000000000000000600052602160045260246000fd5b60068110611bc057611bbf611b80565b5b50565b6000819050611bd182611baf565b919050565b6000611be182611bc3565b9050919050565b611bf181611bd6565b82525050565b6000602082019050611c0c6000830184611be8565b92915050565b600081519050919050565b600082825260208201905092915050565b60005b83811015611c4c578082015181840152602081019050611c31565b83811115611c5b576000848401525b50505050565b6000611c6c82611c12565b611c768185611c1d565b9350611c86818560208601611c2e565b611c8f81611975565b840191505092915050565b611ca381611908565b82525050565b60006040830160008301518482036000860152611cc68282611c61565b9150506020830151611cdb6020860182611c9a565b508091505092915050565b60006020820190508181036000830152611d008184611ca9565b905092915050565b600082825260208201905092915050565b6000611d2482611c12565b611d2e8185611d08565b9350611d3e818560208601611c2e565b611d4781611975565b840191505092915050565b60006020820190508181036000830152611d6c8184611d19565b905092915050565b611d7d81611b44565b8114611d8857600080fd5b50565b600081359050611d9a81611d74565b92915050565b600060208284031215611db657611db56118fe565b5b6000611dc484828501611d8b565b91505092915050565b60008115159050919050565b611de281611dcd565b82525050565b606082016000820151611dfe6000850182611dd9565b506020820151611e116020850182611dd9565b506040820151611e246040850182611c9a565b50505050565b6000606082019050611e3f6000830184611de8565b92915050565b7f596f75277265206e6f74206120766f7465720000000000000000000000000000600082015250565b6000611e7b601283611d08565b9150611e8682611e45565b602082019050919050565b60006020820190508181036000830152611eaa81611e6e565b9050919050565b7f566f74696e672073657373696f6e20686176656e74207374617274656420796560008201527f7400000000000000000000000000000000000000000000000000000000000000602082015250565b6000611f0d602183611d08565b9150611f1882611eb1565b604082019050919050565b60006020820190508181036000830152611f3c81611f00565b9050919050565b7f596f75206861766520616c726561647920766f74656400000000000000000000600082015250565b6000611f79601683611d08565b9150611f8482611f43565b602082019050919050565b60006020820190508181036000830152611fa881611f6c565b9050919050565b7f50726f706f73616c206e6f7420666f756e640000000000000000000000000000600082015250565b6000611fe5601283611d08565b9150611ff082611faf565b602082019050919050565b6000602082019050818103600083015261201481611fd8565b9050919050565b7f4e487b7100000000000000000000000000000000000000000000000000000000600052603260045260246000fd5b7f4e487b7100000000000000000000000000000000000000000000000000000000600052601160045260246000fd5b600061208482611908565b91507fffffffffffffffffffffffffffffffffffffffffffffffffffffffffffffffff82036120b6576120b561204a565b5b600182019050919050565b60006040820190506120d66000830185611b56565b6120e36020830184611afa565b9392505050565b7f50726f706f73616c7320617265206e6f7420616c6c6f77656420796574000000600082015250565b6000612120601d83611d08565b915061212b826120ea565b602082019050919050565b6000602082019050818103600083015261214f81612113565b9050919050565b50565b6000612166600083611d08565b915061217182612156565b600082019050919050565b6000602082019050818103600083015261219581612159565b9050919050565b7f566f7573206e6520706f7576657a20706173206e65207269656e2070726f706f60008201527f7365720000000000000000000000000000000000000000000000000000000000602082015250565b60006121f8602383611d08565b91506122038261219c565b604082019050919050565b60006020820190508181036000830152612227816121eb565b9050919050565b600061223982611908565b915061224483611908565b9250827fffffffffffffffffffffffffffffffffffffffffffffffffffffffffffffffff038211156122795761227861204a565b5b828201905092915050565b600061228f82611908565b915061229a83611908565b9250828210156122ad576122ac61204a565b5b828203905092915050565b60006040820190506122cd6000830185611afa565b81810360208301526122df8184611d19565b90509392505050565b7f4f776e61626c653a2063616c6c6572206973206e6f7420746865206f776e6572600082015250565b600061231e602083611d08565b9150612329826122e8565b602082019050919050565b6000602082019050818103600083015261234d81612311565b9050919050565b7f43757272656e7420737461747573206973206e6f7420766f74696e672073657360008201527f73696f6e20656e64656400000000000000000000000000000000000000000000602082015250565b60006123b0602a83611d08565b91506123bb82612354565b604082019050919050565b600060208201905081810360008301526123df816123a3565b9050919050565b60006040820190506123fb6000830185611be8565b6124086020830184611be8565b9392505050565b7f4e487b7100000000000000000000000000000000000000000000000000000000600052602260045260246000fd5b6000600282049050600182168061245657607f821691505b6020821081036124695761246861240f565b5b50919050565b7f5265676973746572696e672070726f706f73616c732063616e7420626520737460008201527f6172746564206e6f770000000000000000000000000000000000000000000000602082015250565b60006124cb602983611d08565b91506124d68261246f565b604082019050919050565b600060208201905081810360008301526124fa816124be565b9050919050565b7f5265676973746572696e672070726f706f73616c7320686176656e742073746160008201527f7274656420796574000000000000000000000000000000000000000000000000602082015250565b600061255d602883611d08565b915061256882612501565b604082019050919050565b6000602082019050818103600083015261258c81612550565b9050919050565b7f5265676973746572696e672070726f706f73616c73207068617365206973206e60008201527f6f742066696e6973686564000000000000000000000000000000000000000000602082015250565b60006125ef602b83611d08565b91506125fa82612593565b604082019050919050565b6000602082019050818103600083015261261e816125e2565b9050919050565b7f4f776e61626c653a206e6577206f776e657220697320746865207a65726f206160008201527f6464726573730000000000000000000000000000000000000000000000000000602082015250565b6000612681602683611d08565b915061268c82612625565b604082019050919050565b600060208201905081810360008301526126b081612674565b9050919050565b7f566f7465727320726567697374726174696f6e206973206e6f74206f70656e2060008201527f7965740000000000000000000000000000000000000000000000000000000000602082015250565b6000612713602383611d08565b915061271e826126b7565b604082019050919050565b6000602082019050818103600083015261274281612706565b9050919050565b7f416c726561647920726567697374657265640000000000000000000000000000600082015250565b600061277f601283611d08565b915061278a82612749565b602082019050919050565b600060208201905081810360008301526127ae81612772565b905091905056fea2646970667358221220ec3de7a9c6d97a1ea7aed207f033b4aeb80b308611cc3e585d18c770eaa4ba5064736f6c634300080d0033",
  "immutableReferences": {},
  "source": "// SPDX-License-Identifier: MIT\n\npragma solidity 0.8.13;\n\nimport \"@openzeppelin/contracts/access/Ownable.sol\";\n\n/// @title A voting contract\n/// @author Cyril C., with some modifications by Jean C.\n/// @notice You can use this contract for basic voting \ncontract Voting is Ownable {\n\n    // arrays for draw, uint for single\n    // uint[] winningProposalsID;\n    // Proposal[] public winningProposals;\n    uint public winningProposalId;\n\n    /// @notice Retrieve the ID of the winning proposal\n    /// @dev This function has been added to display the winner in the front-end of the dapp\n    /// @return winningProposalId, the ID of the winning proposal\n    function getWinningProposalId() public view returns (uint) {\n        return winningProposalId;\n    }\n    \n    struct Voter {\n        bool isRegistered;\n        bool hasVoted;\n        uint votedProposalId;\n    }\n\n    struct Proposal {\n        string description;\n        uint voteCount;\n    }\n\n    enum  WorkflowStatus {\n        RegisteringVoters,\n        ProposalsRegistrationStarted,\n        ProposalsRegistrationEnded,\n        VotingSessionStarted,\n        VotingSessionEnded,\n        VotesTallied\n    }\n\n    WorkflowStatus public workflowStatus;\n\n    /// @notice Retrieve the current status of the workflow\n    /// @dev The workflowStatus can be RegisteringVoters, ProposalsRegistrationStarted, ProposalsRegistrationEnded, VotingSessionStarted, VotingSessionEnded, VotesTallied\n    /// @return workflowStatus, an int that corresponds to the WorkflowStatus\n    function getWorkflowStatus() public view returns (WorkflowStatus) {\n        return workflowStatus;\n    }\n\n    // Proposal[] proposalsArray; \n    Proposal[12] proposalsArray;\n    uint public numberOfProposals;\n    mapping (address => Voter) voters;\n\n\n    event VoterRegistered(address voterAddress); \n    event WorkflowStatusChange(WorkflowStatus previousStatus, WorkflowStatus newStatus);\n    event ProposalRegistered(uint proposalId, string proposalDescription);\n    event Voted (address voter, uint proposalId);\n\n\n    modifier onlyVoters() {\n        require(voters[msg.sender].isRegistered, \"You're not a voter\");\n        _;\n    }\n    \n    // on peut faire un modifier pour les tats\n\n    // ::::::::::::: GETTERS ::::::::::::: //\n\n    /// @notice Retrieve the voting characteristics of an address\n    /// @dev Retrieve the voting characteristics of an address\n    /// @param _addr The address of the voter we want to analyse\n    /// @return Voter the voter\n    function getVoter(address _addr) external onlyVoters view returns (Voter memory) {\n        return voters[_addr];\n    }\n    \n    /// @notice Retrieve the proposal characteristics of an entry\n    /// @dev Retrieve the proposal characteristics of an entry\n    /// @param _id The proposal id\n    /// @return Proposal, the proposal\n    function getOneProposal(uint _id) external onlyVoters view returns (Proposal memory) {\n        return proposalsArray[_id];\n    }\n\n    /// @notice Retrieve the proposal characteristics of an entry\n    /// @dev Retrieve the proposal characteristics of an entry\n    /// @param _id The proposal id\n    /// @return Proposal, the proposal\n    function getOneProposalDescription(uint _id) external onlyVoters view returns (string memory) {\n        return proposalsArray[_id].description;\n    }\n \n    // ::::::::::::: REGISTRATION ::::::::::::: // \n\n    /// @notice Add a voter\n    /// @dev Add a voter\n    /// @param _addr The address of the voter to add\n    function addVoter(address _addr) external onlyOwner {\n        require(workflowStatus == WorkflowStatus.RegisteringVoters, 'Voters registration is not open yet');\n        require(voters[_addr].isRegistered != true, 'Already registered');\n    \n        voters[_addr].isRegistered = true;\n        emit VoterRegistered(_addr);\n    }\n \n    // ::::::::::::: PROPOSAL ::::::::::::: // \n\n    /// @notice Add a proposal\n    /// @dev Add a proposal\n    /// @param _desc The description of the proposal\n    function addProposal(string memory _desc) external onlyVoters {\n        require(workflowStatus == WorkflowStatus.ProposalsRegistrationStarted, 'Proposals are not allowed yet');\n        require(keccak256(abi.encode(_desc)) != keccak256(abi.encode(\"\")), 'Vous ne pouvez pas ne rien proposer'); // facultatif\n        // voir que desc est different des autres\n\n        Proposal memory proposal;\n        proposal.description = _desc;\n\n        // proposalsArray.push(proposal);\n        proposalsArray[numberOfProposals] = proposal;\n        numberOfProposals += 1;\n\n        // emit ProposalRegistered(proposalsArray.length-1);\n        emit ProposalRegistered(numberOfProposals-1, _desc);\n    }\n\n    // ::::::::::::: VOTE ::::::::::::: //\n\n    /// @notice Vote for a proposal\n    /// @dev Vote for a proposal\n    /// @param _id The proposal id\n    function setVote( uint _id) external onlyVoters {\n        require(workflowStatus == WorkflowStatus.VotingSessionStarted, 'Voting session havent started yet');\n        require(voters[msg.sender].hasVoted != true, 'You have already voted');\n        require(_id <= proposalsArray.length, 'Proposal not found'); // pas oblig, et pas besoin du >0 car uint\n\n        voters[msg.sender].votedProposalId = _id;\n        voters[msg.sender].hasVoted = true;\n        proposalsArray[_id].voteCount++;\n\n        emit Voted(msg.sender, _id);\n    }\n\n    /// @notice Start the registering of the proposals\n    /// @dev Start the registering of the proposals\n    function startProposalsRegistering() external onlyOwner {\n        require(workflowStatus == WorkflowStatus.RegisteringVoters, 'Registering proposals cant be started now');\n        workflowStatus = WorkflowStatus.ProposalsRegistrationStarted;\n        emit WorkflowStatusChange(WorkflowStatus.RegisteringVoters, WorkflowStatus.ProposalsRegistrationStarted);\n    }\n\n    /// @notice End the registering of the proposals\n    /// @dev End the registering of the proposals\n    function endProposalsRegistering() external onlyOwner {\n        require(workflowStatus == WorkflowStatus.ProposalsRegistrationStarted, 'Registering proposals havent started yet');\n        workflowStatus = WorkflowStatus.ProposalsRegistrationEnded;\n        emit WorkflowStatusChange(WorkflowStatus.ProposalsRegistrationStarted, WorkflowStatus.ProposalsRegistrationEnded);\n    }\n\n    /// @notice Start the voting session\n    /// @dev Start the voting session\n    function startVotingSession() external onlyOwner {\n        require(workflowStatus == WorkflowStatus.ProposalsRegistrationEnded, 'Registering proposals phase is not finished');\n        workflowStatus = WorkflowStatus.VotingSessionStarted;\n        emit WorkflowStatusChange(WorkflowStatus.ProposalsRegistrationEnded, WorkflowStatus.VotingSessionStarted);\n    }\n\n    /// @notice End the voting session\n    /// @dev End the voting session\n    function endVotingSession() external onlyOwner {\n        require(workflowStatus == WorkflowStatus.VotingSessionStarted, 'Voting session havent started yet');\n        workflowStatus = WorkflowStatus.VotingSessionEnded;\n        emit WorkflowStatusChange(WorkflowStatus.VotingSessionStarted, WorkflowStatus.VotingSessionEnded);\n    }\n\n    /// @notice Count the votes\n    /// @dev Count the votes\n    function tallyVotes() external onlyOwner {\n       require(workflowStatus == WorkflowStatus.VotingSessionEnded, \"Current status is not voting session ended\");\n       uint _winningProposalId;\n      for (uint256 p = 0; p < proposalsArray.length; p++) {\n           if (proposalsArray[p].voteCount > proposalsArray[_winningProposalId].voteCount) {\n               _winningProposalId = p;\n          }\n       }\n       winningProposalId = _winningProposalId;\n       \n       workflowStatus = WorkflowStatus.VotesTallied;\n       emit WorkflowStatusChange(WorkflowStatus.VotingSessionEnded, WorkflowStatus.VotesTallied);\n    }\n}",
  "sourcePath": "/home/jean/dappVoting/contracts/Voting.sol",
  "compiler": {
    "name": "solc",
    "version": "0.8.13+commit.abaa5c0e.Emscripten.clang"
  },
  "schemaVersion": "3.4.6",
  "updatedAt": "2022-04-22T20:15:21.728Z",
  "devdoc": {
    "author": "Cyril C., with some modifications by Jean C.",
    "kind": "dev",
    "methods": {
      "addProposal(string)": {
        "details": "Add a proposal",
        "params": {
          "_desc": "The description of the proposal"
        }
      },
      "addVoter(address)": {
        "details": "Add a voter",
        "params": {
          "_addr": "The address of the voter to add"
        }
      },
      "endProposalsRegistering()": {
        "details": "End the registering of the proposals"
      },
      "endVotingSession()": {
        "details": "End the voting session"
      },
      "getOneProposal(uint256)": {
        "details": "Retrieve the proposal characteristics of an entry",
        "params": {
          "_id": "The proposal id"
        },
        "returns": {
          "_0": "Proposal, the proposal"
        }
      },
      "getOneProposalDescription(uint256)": {
        "details": "Retrieve the proposal characteristics of an entry",
        "params": {
          "_id": "The proposal id"
        },
        "returns": {
          "_0": "Proposal, the proposal"
        }
      },
      "getVoter(address)": {
        "details": "Retrieve the voting characteristics of an address",
        "params": {
          "_addr": "The address of the voter we want to analyse"
        },
        "returns": {
          "_0": "Voter the voter"
        }
      },
      "getWinningProposalId()": {
        "details": "This function has been added to display the winner in the front-end of the dapp",
        "returns": {
          "_0": "winningProposalId, the ID of the winning proposal"
        }
      },
      "getWorkflowStatus()": {
        "details": "The workflowStatus can be RegisteringVoters, ProposalsRegistrationStarted, ProposalsRegistrationEnded, VotingSessionStarted, VotingSessionEnded, VotesTallied",
        "returns": {
          "_0": "workflowStatus, an int that corresponds to the WorkflowStatus"
        }
      },
      "owner()": {
        "details": "Returns the address of the current owner."
      },
      "renounceOwnership()": {
        "details": "Leaves the contract without owner. It will not be possible to call `onlyOwner` functions anymore. Can only be called by the current owner. NOTE: Renouncing ownership will leave the contract without an owner, thereby removing any functionality that is only available to the owner."
      },
      "setVote(uint256)": {
        "details": "Vote for a proposal",
        "params": {
          "_id": "The proposal id"
        }
      },
      "startProposalsRegistering()": {
        "details": "Start the registering of the proposals"
      },
      "startVotingSession()": {
        "details": "Start the voting session"
      },
      "tallyVotes()": {
        "details": "Count the votes"
      },
      "transferOwnership(address)": {
        "details": "Transfers ownership of the contract to a new account (`newOwner`). Can only be called by the current owner."
      }
    },
    "title": "A voting contract",
    "version": 1
  },
  "userdoc": {
    "kind": "user",
    "methods": {
      "addProposal(string)": {
        "notice": "Add a proposal"
      },
      "addVoter(address)": {
        "notice": "Add a voter"
      },
      "endProposalsRegistering()": {
        "notice": "End the registering of the proposals"
      },
      "endVotingSession()": {
        "notice": "End the voting session"
      },
      "getOneProposal(uint256)": {
        "notice": "Retrieve the proposal characteristics of an entry"
      },
      "getOneProposalDescription(uint256)": {
        "notice": "Retrieve the proposal characteristics of an entry"
      },
      "getVoter(address)": {
        "notice": "Retrieve the voting characteristics of an address"
      },
      "getWinningProposalId()": {
        "notice": "Retrieve the ID of the winning proposal"
      },
      "getWorkflowStatus()": {
        "notice": "Retrieve the current status of the workflow"
      },
      "setVote(uint256)": {
        "notice": "Vote for a proposal"
      },
      "startProposalsRegistering()": {
        "notice": "Start the registering of the proposals"
      },
      "startVotingSession()": {
        "notice": "Start the voting session"
      },
      "tallyVotes()": {
        "notice": "Count the votes"
      }
    },
    "notice": "You can use this contract for basic voting ",
    "version": 1
  }
}